:0E0000000C9446000C9400000C9400000C942C
:10000E0000000C9400000C9400000C9400000C9462
:10001E0000000C9400000C9400000C9400000C9452
:10002E0000000C9400000C9400000C9400000C9442
:10003E0000000C9400000C9400000C9400000C9432
:10004E0000000C9400000C9400000C9400000C9422
:10005E0000000C9400000C9400000C9400000C9412
:10006E0000000C9400000C9400000C9400000C9402
:10007E0000000C9400000C9400000C940000F89406
:10008E00EE27ECBBF1E0F5BFE5BFE0936C008DE031
:10009E00A2E0BB27ED938A95E9F780E090E1A0E01E
:1000AE00B1E0ED930197E9F78BBFEFEFEDBFE0E124
:1000BE00EEBFC0E0D5E00C946400EFEFEABBE0E0E9
:1000CE00E0936100E0936100E7B9E7E8E6B9369A9C
:1000DE00349BFECFE4B1F0E0DF01E5B1FE2FE0E0AE
:1000EE00EA0FFB1F2F0166277727A9D0DF01CB016F
:1000FE00E0E0F0EC6FE774E41DD1A0E0B0E088E43E
:10010E0092E4CAD065D03F01D301EAE0F0E01BD003
:10011E00E295E07F6E2FD301EAE0F0E027D0E62BE8
:10012E00EBBBA4E6B0E04AD1D2CFFFCFF0956095FD
:10013E007095E195FF4F6F4F7F4F08956F2F660FAC
:10014E00660B762F08950024112490E1AA0FBB1F91
:10015E00001C111C0E1A1F0A18F40E0E1F1E01C0D1
:10016E00A1609A9599F7FD01D0010895ECDFFD018C
:10017E000895552342F4503811F4E0FF04C031962F
:10018E00691F791F6BF050E8572711F45F9373C006
:10019E005F3F31F0660F000C57956795752F0895E8
:1001AE005F9300200AF072C06BC050E8192E152222
:1001BE00880F991F9527550F879550E8072E052212
:1001CE00660F771F7527550F67950895689401C0C0
:1001DE00E8945F93F2DF703818F07F3F08F44BC05D
:1001EE0056E1571BAAF4519558300EF4593030F0A1
:1001FE00EFEFFFEF6FEF7FE777F91AC07727552301
:10020E00B9F0EE0FFF1F661F771F5A95D1F710C07A
:10021E007727583028F0EF2FF62F672F5850F9CF49
:10022E00552331F076956795F795E7955A95D1F761
:10023E0000200AF47BDF5F910895689401C0E89472
:10024E00309760407040B1F0002426F0772312F40E
:10025E0000946CDF172E7EE1112032F07A95EE0FAE
:10026E00FF1F661F111CF9CFEF2FF62F612D5F9325
:10027E008ADF5F910895EE27FF27BF015F910895F2
:10028E00EFEFFFEF6FE77FEF5F910895EFEFFFEF77
:10029E006FE77FE75F9108955F9387DF703859F3BB
:1002AE00903849F301240894791F23F424F3002095
:1002BE003AF3ECCF0F921F932F933F934F93112747
:1002CE0022279927689FA0018F9F302D410D591F1E
:1002DE006B9F300D411D591F8E9F27D0BF9F25D07C
:1002EE006A9F23D0BE9F1DD0AF9F1BD0AE9F110D16
:1002FE00291F391F491F591FE32FF42F652F522F26
:10030E004F913F912F911F910F9066232AF0550F19
:10031E00EE1FFF1F661F02C073954BF22ADF5F911F
:10032E000895100D211D391F02C0200D311D491FCA
:10033E00591F08955F9339DF703821F411200AF4A4
:10034E009FCFA4CF903809F496CF01240894970B31
:10035E001BF4D4F30020F3CF792F1F932F933F93E9
:10036E004F931124112722273327A90190E2AE17AC
:10037E00BF078607410730F0AE1BBF0B860B410B44
:10038E00089401C08894551F221F331F111CAA1FE9
:10039E00BB1F881F441F9A9551F7F901612D4F918C
:1003AE003F912F911F91662332F0550FEE1FFF1FC5
:1003BE00661F7A954BF2DDDE5F910895109639F047
:1003CE00A89580EA9FE00197F1F71197C9F7089574
:00000001FF
