:100000000C9446000C9400000C9400000C9400002A
:100010000C9400000C9400000C9400000C94000060
:100020000C9400000C9400000C9400000C94000050
:100030000C9400000C9400000C9400000C94000040
:100040000C9400000C9400000C9400000C94000030
:100050000C9400000C9400000C9400000C94000020
:100060000C9400000C9400000C9400000C94000010
:100070000C9400000C9400000C9400000C94000000
:100080000C9400000C9400000C940000F894EE27EF
:10009000ECBBF1E0F5BFE5BFE0936C008DE0A2E0C2
:1000A000BB27ED938A95E9F780E090E1A0E0B1E00D
:1000B000ED930197E9F78BBFEFEFEDBFE0E1EEBF06
:1000C000C0E0D5E00C94640000E010E0E1E0EABBA1
:1000D000E6E0E7B9E7E8E6B9E7ECE6B9349BFECF3E
:1000E000E4B1F0E0DF01E5B1FE2FE0E0EA0FFB1F35
:1000F0008F010030E2E01E0714F4E1E001C0E0E00F
:10010000EBBBA2E0B0E002D0E7CFFFCF109639F012
:10011000A89580EA9FE00197F1F71197C9F7089534
:00000001FF
