:0E0000000C9446000C9464000C946E000C945A
:10000E0078000C9482000C9400000C9400000C9468
:10001E0000000C9400000C9400000C9400000C9452
:10002E0000000C9400000C9400000C9400000C9442
:10003E0000000C9400000C9400000C9400000C9432
:10004E0000000C9400000C9400000C9400000C9422
:10005E0000000C9400000C9400000C9400000C9412
:10006E0000000C9400000C9400000C9400000C9402
:10007E0000000C9400000C9400000C940000F89406
:10008E00EE27ECBBF1E0F5BFE5BFE0936C008DE031
:10009E00A2E0BB27ED938A95E9F780E090E1A0E01E
:1000AE00B1E0ED930197E9F78BBFEFEFEDBFE0E124
:1000BE00EEBFC0E0D5E00C94990050D0E1E05E2E8A
:1000CE00EAE05E1618F458D05394FACF1DC046D00D
:1000DE00EBE05E2EE4E15E1618F44ED05394FACFA8
:1000EE0013C03CD0E5E15E2EEEE15E1618F444D06E
:1000FE005394FACF09C032D0EFE15E2EE8E25E16DD
:10010E0018F43AD05394FACFE991EFBFF991E991EF
:10011E00B991A9919991899179916991F9901990D3
:10012E0009901895EFEFEABBE0E0E1BBEFE0E9BF25
:10013E00EFEFE0936A00E0E8EFBF5524A52DB0E0A5
:10014E00EAE0F0E042D0E295E07F6E2FA52DBB27CE
:10015E00EAE0F0E03FD0E62BEBBBFFCF0A921A921B
:10016E00FA926A937A938A939A93AA93BA93EA939A
:10017E00FA93EFB7EA930895A52DB0E0EAE0F0E028
:10018E0024D0E295E07F6E2FA52DBB27EAE0F0E0AC
:10019E0021D0E62BEBBBA4E6B0E038C0F195E1959B
:1001AE00F04008950024112490E1AA0FBB1F001CFB
:1001BE00111C0E1A1F0A18F40E0E1F1E01C0A1608C
:1001CE009A9599F7FD01D001089512D0EBDF0EF448
:1001DE00E5DF0895E894B7FF04C0B195A195B0404E
:1001EE006894F7FDDBDFDEDFFD010EF4D7DF089547
:1001FE00E894F7FF02C0D2DF6894B7FF06C0B1954E
:10020E00A195B04000F8039400FA0895109639F0C5
:10021E00A89580EA9FE00197F1F71197C9F7089525
:00000001FF
