:020000000C945E
:1000020060000C9400000C9400000C9400000C940E
:1000120000000C9400000C9400000C9400000C945E
:1000220000000C9400000C9400000C9400000C944E
:1000320000000C9400000C9400000C9400000C943E
:1000420000000C9400000C9400000C9400000C942E
:1000520000000C9400000C9400000C9400000C941E
:1000620000000C9400000C9400000C9400000C940E
:1000720000000C9400000C9400000C9400000C94FE
:1000820000000C9400000C9400001027E8036400A8
:100092000A00010000100001100001000009477968
:1000A200756E6744616C000080C0020004009E000F
:1000B20009000009A00002000909AA000000F89442
:1000C200EE27ECBBF1E0F5BFE5BFE0936C008DE0FD
:1000D200A2E0BB27ED938A95E9F780E090E1A0E0EA
:1000E200B1E0ED930197E9F7ECEAF0E085919591A3
:1000F200009761F0A591B59105901590BF01F001AF
:1001020005900D920197E1F7FB01F0CF8BBFEFEF66
:10011200EDBFE0E1EEBFC0E0D9E00C949000A0E1B9
:10012200B3D07CD0E0E0EBB9E8E1EAB9E6E0E093F5
:100132009500E0E0E0939000E7E6E9B9D201EC91A6
:10014200E03069F0F20131962F013197A08108D099
:100152000DD0AE2F0FD0A4E6B0E0C8D0EFCFFFCFC6
:100162001A931A2F5D9BFECF1CB90DC05F9BFECF69
:10017200ECB108951A931A2F51D0E0E0EA93A0E06F
:100182003FD0A12F58D019910895FFE0FA95F1F7C9
:100192000895AAB3AF70AABBD99AD898F6DFDA9AB3
:1001A200F4DFA9B3DA98F1DFDA9AEFDFDA98A7FD84
:1001B200F5CF0895A07FAB2BABBBDA9AE6DFDA98D6
:1001C200E4DF0895AA93D998AAB3A76FAABBBBB3D9
:1001D200BF70A881EFDFA881A295ECDFD99A0C94B9
:1001E2007501DA9AD2DFE9B3DA98CFDFE07F0895BA
:1001F200CCDFF7DFAE2FF5DFD998E295EA2B089531
:10020200AA93C7DFE881F0E0E75FF64FE081A981BA
:10021200AE0FD8DF7980688022960895BADFA2E017
:10022200D1DFB7DFACE0CEDFB4DFA1E0CBDFE0E0CF
:100232006E2E7E2E0895AA93EF93FF93A881689461
:10024200AA3019F0E894791430F06394E0E0EA936C
:10025200A62DD6DF2EF073949CDFD89AA881B2DF48
:10026200FF91EF910C947501AA27BB271197F1F723
:100272000895AA93D998AAB3A76FAABBBBB3BF70BC
:10028200A88198DFD99A30C0AA93DA98D898988032
:10029200E881E058E0930B09E881E054E0930C090F
:1002A200E3DFA0E3E6DFE0DFA0E3E3DFDDDFA0E3FF
:1002B200E0DFDADFA0E2DDDFD7DFA8E283DFD4DF31
:1002C200A4E080DFD1DFA5E87DDFCEDFAAB3AF7087
:1002D200AABBD99A8DDFE53011F0E0E005C059DF05
:1002E200A6E070DF9BDFE1E021960895109639F0D9
:1002F200A89580EA9FE00197F1F71197C9F7089551
:00000001FF
