:0C0000000C9453000C9400000C940000C1
:10000C000C9400000C9400000C9400000C94000064
:10001C000C9400000C9400000C9400000C94000054
:10002C000C9400000C9400000C9400000C94000044
:10003C000C9400000C9400000C9400000C94000034
:10004C000C9400000C9400000C9400000C94000024
:10005C000C9400000C9400000C9400000C94000014
:10006C000C9400000C9400000C9400000C94000004
:10007C000C9400000C9400000C9400000C940000F4
:10008C000538000C54455354212121000400040070
:10009C008C000800000590000000F894EE27ECBBE3
:1000AC00F1E0F5BFE5BFE0936C008DE0A2E0BB276B
:1000BC00ED938A95E9F780E090E1A0E0B1E0ED9353
:1000CC000197E9F7E8E9F0E085919591009761F0E7
:1000DC00A591B59105901590BF01F00105900D9279
:1000EC000197E1F7FB01F0CF8BBFEFEFEDBFE0E144
:1000FC00EEBFC0E0D5E00C94DE00EFEFE7BBE1BB58
:10010C00E0E0E8BBE2BB08951A931A2FC098C1989F
:10011C005ED062D0C298C098C1982CC061D09D01AD
:10012C004E815F812230E0E03E0714F021E030E0A8
:10013C004031E0E05E0714F04FE050E0022E032A5D
:10014C0021F0FA01E054FF4F03C0FA01E058FF4FD1
:10015C001E2FA12FD9DF4BD0289608951A931A2F52
:10016C00C198C09A34D0A1E0B0E048D035D0C19845
:10017C00C09AC298A1E0B0E041D0199108951A93A9
:10018C000A938D01D801EC91E03029F00F5F1F4FDD
:10019C00AC91E4DFF7CF099119910895AFE0B0E08D
:1001AC002DD0A52DB1DFA72DAFDFA1E0ADDF0895D8
:1001BC0000E015E0A2DFF2DFE0E0F0E0FA93EA9372
:1001CC00A0E0B0E0ABDFD801DADFFFCFFFCFA1E0DA
:1001DC00B0E014D0C29A089512BBA1E0B0E00EC0FA
:1001EC005A934A933A932A931A930A9308955D81EA
:1001FC004C813B812A81198108810895109639F030
:10020C00A89580EA9FE00197F1F71197C9F7089537
:00000001FF
