:020000000C945E
:100002006A000C9400000C9400000C9400000C9404
:1000120000000C9400000C9400000C9400000C945E
:1000220000000C9400000C9400000C9400000C944E
:1000320000000C9400000C9400000C9400000C943E
:1000420000000C9400000C9400000C9400000C942E
:1000520000000C9400000C9400000C9400000C941E
:1000620000000C9400000C9400000C9400000C940E
:1000720000000C9400000C9400000C9400000C94FE
:1000820000000C9400000C9400001027E8036400A8
:100092000A00010000100001100001003478342031
:1000A2004B65797061640025640080C001002D4EAB
:1000B200414E00494E4600000B0000059E000B0019
:1000C2000B059E0002001605AC0001001A05AE00E9
:1000D2000000F894EE27ECBBF1E0F5BFE5BFE0933A
:1000E2006C008DE0A2E0BB27ED938A95E9F780E0F2
:1000F20090E1A0E0B1E0ED930197E9F7EAEBF0E0DF
:1001020085919591009761F0A591B5910590159013
:10011200BF01F00105900D920197E1F7FB01F0CFCD
:100122008BBFEFEFEDBFE0E1EEBFC0E0D5E00C9496
:100132009A002A97EFE0EABBE0E0E0BDEFEFEBBB0D
:10014200E4BBA0E174D1B7D3A0E0B5E0B8D3882472
:10015200992479D0541421F0E52DE07FE03F09F491
:1001620070C0E0E0EA93A1E00DD1EAE05E1698F4F7
:10017200FE01AAD3DE0114968CD1AAE0B0E028D405
:10018200DF01E52DF0E0EA0FFB1F15D4A4D3DE0159
:100192002DD1452C56C0E0E1E515E9F4A1D3D1F00B
:1001A200A3D311F4A7D313C0EB30A0E0FA0711F4E4
:1001B200AAD30DC0EC30A0E0FA0719F4AFD3B2D342
:1001C20006C0ED30A0E0FA0711F4A8D3B1D377242A
:1001D200DE010CD136C0E4D06ED3ABE0B5E06FD314
:1001E200082C092809F17CD349F17ED311F482D37A
:1001F20025C0EB30A0E0FA0711F485D31FC0EC3024
:10020200A0E0FA0719F48AD38DD318C0ED30A0E02C
:10021200FA0719F483D38CD311C0EE30A0E0FA07A9
:1002220019F48824992403C0DE0133D14F01FE0161
:100232004BD3E0E0F0E060E070E04DD3DE01D6D0D9
:10024200752C87CFFFCF08D05E2EE0EFE51519F0B1
:1002520003D0E03FE9F7089596D30EEFEFEFEBBB43
:1002620010E0143008F04FC00BBB8BE68A95F1F713
:1002720039B3E9B3E73D11F430E03DC0EE3E11F48D
:1002820031E039C0EE3D11F432E035C0EE3B11F4FD
:1002920033E031C0ED3E11F434E02DC0ED3D11F4F8
:1002A20035E029C0ED3B11F436E025C0EB3E11F4F8
:1002B20037E021C0EB3D11F438E01DC0EB3B11F4F7
:1002C20039E019C0EE3711F43AE015C0ED3711F4F8
:1002D2003BE011C0EB3711F43CE00DC0E73711F4FD
:1002E2003DE009C0E73E11F43EE005C0E73B11F4F2
:1002F20030E101C030EF303F31F4E02FEE0FE1602A
:100302000E2F1F5FAECFE32F45D324960895FFE053
:10031200FA95F1F70895A7B3AF70A7BBC19AC09839
:10032200F6DFC29AF4DFA6B3C298F1DFC29AEFDF1A
:10033200C298A7FDF5CF0895A07FAB2BA8BBC29AA8
:10034200E6DFC298E4DF0895AA93C198A7B3A76F26
:10035200A7BBB8B3BF70A881EFDFA881A295ECDF7D
:10036200C19A0C944802C29AD2DFE6B3C298CFDF98
:10037200E07F0895CCDFF7DFAE2FF5DFC198E2957D
:10038200EA2B0895AA93C7DFE881F0E0EA5EFA4F0C
:10039200E081A981AE0FD8DF6980B88022960895E6
:1003A200BADFA2E0D1DFB7DFACE0CEDFB4DFA1E09D
:1003B200CBDFE0E0BE2E6E2E0895AA93EF93FF935B
:1003C200A8816894AA3019F0E8946A1430F0B394C2
:1003D200E0E0EA93AB2DD6DF2EF063949CDFC09A67
:1003E200A881B2DFFF91EF910C944802BA93AA93CD
:1003F2001A93A981BA81ED91A983BA831E2FE030A5
:1004020019F0A12FDADFF5CF188123960895AA27D4
:10041200BB271197F1F70895AA93C198A7B3A76FC5
:10042200A7BBB8B3BF70A88187DFC19A30C0AA93B7
:10043200C298C098A880E881E058E0931805E88146
:10044200E054E0931905E3DFA0E3E6DFE0DFA0E399
:10045200E3DFDDDFA0E3E0DFDADFA0E2DDDFD7DF2D
:10046200A8E272DFD4DFA4E06FDFD1DFA5E86CDFA2
:10047200CEDFA7B3AF70A7BBC19A7CDFE53011F026
:10048200E0E005C048DFA6E05FDF8ADFE1E0219619
:100492000895BA93AA93B981A881EC918A2FAE2FBD
:1004A200E6D1A82FEE2311F01196F7CFE894EC9144
:1004B200ED3211F4689402C0EB3209F4119666270A
:1004C2007727EC918A2FAE2FC9D1A82FEE2379F08E
:1004D200FB01660F771F660F771F6E0F7F1F660F78
:1004E200771FED91FF27E0536E0F7F1FEACFFB01CD
:1004F2001EF4E095F095319622960895BA93AA9348
:10050200A991B991E991F99130962AF4E095F09583
:1005120031966DE26D93E89480E197E20DD088EE1A
:1005220093E00AD084E6992707D08AE005D06E2F9F
:1005320010D066276C9308956627E817F90720F014
:100542006395E81BF90BC9F7662311F416F00895B9
:100552006894605D6D93089514D29D015E81129638
:1005620062D23097E1F0D90114965DD28F013097B3
:1005720059F00230E0E01E0760F0F80131978F0178
:10058200D9011496ED93FC93D9011296D7D13197E4
:100592005083D90148D2FF230AF0D0D105C0D90136
:1005A200EFEFFFEFED93FC93F3D127960895BA9303
:1005B200AA932697E6D110E0AC85BD85E0E0F0E095
:1005C200ED93FC93EA89FB893196EA8BFB8B319799
:1005D200E4912E2FE03009F409C1E12FE03031F42B
:1005E200253211F411E001C0AFD1FFC0E130A1F416
:1005F200253211F4A9D1F8C012E040E000E02D321A
:1006020011F401E0F2C02B3211F44BE2EEC02032C1
:1006120011F440E2EAC002C0E23039F450E013E0E3
:10062200203311F40068E1C003C0E33009F0DDC0FB
:10063200203310F02A3308F007C0AAE05A9F502D49
:10064200E22FE0535E0FD1C0E22FE33639F483D1BB
:10065200E889F989A481AA9384D1C6C0E33729F431
:100662007AD185D10FD11E2F07C0E03749F473D15B
:100672007ED114D11E2F086002600F7730E038C09F
:10068200E43611F0E93611F4046002C0E53731F4C2
:10069200ECE8F0E0EE83FF8315E00CC0E83511F4DE
:1006A200086003C0E83709F09FC0E6E9F0E0EE8396
:1006B200FF8314E002FF15C04ED1A889B9891496B0
:1006C200ED91FD91EA87FB87AB85AA2322F46FD1D6
:1006D200EA87FB874DE2403011F01F5F01C00B7FBC
:1006E20007C039D1A889B98914969DD1EA87FB87B9
:1006F20000FD10C0151770F407FF08C002FF04C008
:100702000B7F242F115001C020E301C020E21CD135
:100712005150F0CF312F01FF16C0303099F003FF56
:1007220006C0EE81FF812591EE83FF8305C0AE8175
:10073200BF812D91AE83BF8307D1503009F0515054
:100742003150EBCF48C020E3EE81FF8170D1E887C2
:10075200F987EE81FF813296EE83FF83E885F98582
:10076200AA85BB85AE17BF0750F02F5FA885B98554
:10077200EA85FB85EA1BFB0BEA87FB87EFCF2A336F
:1007820028F003FF02C0295F01C0295D04FD19C0E2
:10079200213320F4A885B985119709F409C05317AC
:1007A20010F000FF01C011C020E207FF0AC020E3E1
:1007B200006102FF06C00B7F4A93D3D0503009F08C
:1007C2005150C2D0503009F051503150A885B985EE
:1007D200129708F0B8CF00FF07C0503029F05150EF
:1007E200E0E2EA93BED0F9CF10E0ECCEAC85BD8555
:1007F200ED91FD91CDD064960895FF92F82E269743
:10080200C0D0FE01CCD046855785042E052A19F4A6
:10081200EFEFFFEF1FC0DE011896C5D08D014887AC
:100822005987E0E0EA87EB87DE011C96BCD0ED91A8
:10083200FD91FA93EA931A930A93EDEAF2E0FA939E
:10084200EA93DE011C96B3DE9F01A885B985E0E03C
:10085200EC93F9019DD02C96FF900895AA93E1E0C4
:10086200F991F03310F0FA3308F0EE270895AA93C5
:10087200E1E0F991F03229F0F93010F0FE3008F0A1
:10088200EE270895BA93AA93A991B991EE27FF276B
:100892006D91662311F03196FBCF0895BA93AA9316
:1008A200AA27BB27E991F9910590002011F0119632
:1008B200FBCFFD010895E0E0EA93A0E063CD96DD71
:1008C200E0E0EA93A1E05ECDFA93EA93E9EAF0E090
:1008D200FA93EA930895AFD084E08FDF28960895C3
:1008E200DE01D7DD30970895E72DF0E0EA30A0E091
:1008F200FA070895DE01CDDDE80DF91DFA93EA93BA
:10090200DE011296FBCDDE01C4DDDF01F401EA1B3C
:10091200FB0BFA93EA93DE011296F0CDDE01B9DD0C
:10092200D401089555D0FA93EA93DE011296E6CDEA
:1009320067D0FA93EA93DE011296E0CDED91FD9134
:100942003196FE93EE9308952A93AD85BE85EF8589
:10095200F88909950895E889F9893497E88BF98B24
:100962000895AD85BE85EF85F88909950895A88912
:10097200B9891496ED91FD91EE83FF83AE81BF811B
:1009820008955A934A933A932A931A930A9308958D
:100992005D814C813B812A8119810881089500245F
:1009A200EF0DF01D08950024AF0DB01D0895F195CF
:1009B200E195F04008956F2F660F660B762F08952C
:1009C200FA9FF02DEB9FF00DEA9FE02DF10D0895B7
:1009D2001CD0F6DF0EF4EBDF08950024112490E121
:1009E200AA0FBB1F001C111C0E1A1F0A18F40E0EB0
:1009F2001F1E01C0A1609A9599F7FD01D0010895CB
:100A020004D0EBDF0EF4D3DF0895E894F7FF02C0C1
:100A1200CEDF6894B7FF06C0B195A195B04000F84B
:100A2200039400FA0895ED91FC91119708950590B1
:100A3200F491E02D08957A936A93FA93EA930895D4
:00000001FF
