:0E0000000C9462000C9400000C9400000C9410
:10000E0000000C9400000C9400000C9400000C9462
:10001E0000000C9400000C9400000C9400000C9452
:10002E0000000C9400000C9400000C9400000C9442
:10003E0000000C9492000C9400000C9400000C94A0
:10004E0000000C9400000C9400000C9400000C9422
:10005E0000000C9400000C9400000C9400000C9412
:10006E0000000C9400000C9400000C9400000C9402
:10007E0000000C9400000C9400000C94000010275B
:10008E00E80364000A0001000010000110000100E6
:10009E00574154434800253032643A253032643A91
:1000AE0025303264000080C0060000059E0002006C
:1000BE001605B4000000F894EE27ECBBF1E0F5BF96
:1000CE00E5BFE0936C008DE0A2E0BB27ED938A952F
:1000DE00E9F780E090E1A0E0B1E0ED930197E9F758
:1000EE00E6EBF0E085919591009761F0A591B591C1
:1000FE0005901590BF01F00105900D920197E1F763
:10010E00FB01F0CF8BBFEFEFEDBFE0E1EEBFC0E044
:10011E00D5E00C94D7000A921A92FA926A937A93C7
:10012E008A939A93AA93BA93EA93FA93EFB7EA93C0
:10013E00E0E0E2BFE52D5394EE3121F55524EED0EB
:10014E00E5E0EA93A0E0DCD0A0E0B5E00DD1E4E07C
:10015E00EA93A1E0D5D0A2E8F5D24E2EA0E8F2D2D5
:10016E007E2EE6E0F5E0FA93EA93E4EAF0E0FA9305
:10017E00EA93F5D2F4D2F3D28CE09AD26096A6E04E
:10018E00B5E0F2D0E991EFBFF991E991B991A9915A
:10019E009991899179916991F99019900990189591
:1001AE00EFEFEABB5524E1E0E7BFE7E0E3BFE0E0B5
:1001BE00E2BFE0E8EFBFA0E1F8D0EEE8EA93A0E0FE
:1001CE0040D0E0E8EA93A1E53CD0E2E8EA93A9E565
:1001DE0038D0E4E8EA93A1E134D0EEE8EA93A0E85F
:1001EE0030D0FFCFFFCFE6D20A2F10E020E030E074
:1001FE000F5F119A1A9A20E030E02830E0E03E07B7
:10020E005CF4189800FF02C0199A01C01998189A48
:10021E0006952F5F3F4FF1CFA19820E030E02830B8
:10022E00E0E03E0744F4189809991068189A16955C
:10023E002F5F3F4FF4CFA898AA98E12FC2D22496F1
:10024E000895B8D20A2F3C81119A1A9A10E01830EC
:10025E0050F4189830FF02C0199A01C01998189AD4
:10026E0036951F5FF4CF10E0183050F4189800FF49
:10027E0002C0199A01C01998189A06951F5FF4CFFB
:10028E0018981A989ED225960895FFE0FA95F1F7E0
:10029E000895AAB3AF70AABBD99AD898F6DFDA9AA6
:1002AE00F4DFA9B3DA98F1DFDA9AEFDFDA98A7FD77
:1002BE00F5CF0895A07FAB2BABBBDA9AE6DFDA98C9
:1002CE00E4DF0895AA93D998AAB3A76FAABBBBB3CC
:1002DE00BF70A881EFDFA881A295ECDFD99A0C94AC
:1002EE000C02DA9AD2DFE9B3DA98CFDFE07F089515
:1002FE00CCDFF7DFAE2FF5DFD998E295EA2B089524
:10030E00AA93C7DFE881F0E0EA5EFA4FE081A981A7
:10031E00AE0FD8DF9980888022960895BADFA2E0CA
:10032E00D1DFB7DFACE0CEDFB4DFA1E0CBDFE0E0C2
:10033E008E2E9E2E0895AA93EF93FF93A881689414
:10034E00AA3019F0E8949B1430F08394E0E0EA931D
:10035E00A82DD6DF2EF093949CDFD89AA881B2DF19
:10036E00FF91EF910C940C02BA93AA931A93A98160
:10037E00BA81ED91A983BA831E2FE03019F0A12F17
:10038E00DADFF5CF188123960895AA27BB27119798
:10039E00F1F70895AA93D998AAB3A76FAABBBBB3D6
:1003AE00BF70A88187DFD99A30C0AA93DA98D898FF
:1003BE00B880E881E058E0931805E881E054E093B6
:1003CE001905E3DFA0E3E6DFE0DFA0E3E3DFDDDF37
:1003DE00A0E3E0DFDADFA0E2DDDFD7DFA8E272DF45
:1003EE00D4DFA4E06FDFD1DFA5E86CDFCEDFAAB3E8
:1003FE00AF70AABBD99A7CDFE53011F0E0E005C002
:10040E0048DFA6E05FDF8ADFE1E021960895D0D1D4
:10041E009D015E811296EFD13097E1F0D9011496CD
:10042E00EAD18F01309759F00230E0E01E0760F0FC
:10043E00F80131978F01D9011496ED93FC93D901F0
:10044E00129693D131975083D901D5D1FF230AF05B
:10045E008CD105C0D901EFEFFFEFED93FC93AFD137
:10046E0027960895BA93AA932697A2D110E0AC8549
:10047E00BD85E0E0F0E0ED93FC93EA89FB893196CF
:10048E00EA8BFB8B3197E4912E2FE03009F409C1F2
:10049E00E12FE03031F4253211F411E001C06BD1BF
:1004AE00FFC0E130A1F4253211F465D1F8C012E09D
:1004BE0040E000E02D3211F401E0F2C02B3211F4D5
:1004CE004BE2EEC0203211F440E2EAC002C0E2304C
:1004DE0039F450E013E0203311F40068E1C003C09A
:1004EE00E33009F0DDC0203310F02A3308F007C0E6
:1004FE00AAE05A9F502DE22FE0535E0FD1C0E22F9B
:10050E00E33639F43FD1E889F989A481AA9340D121
:10051E00C6C0E33729F436D141D1FBD01E2F07C018
:10052E00E03749F42FD13AD100D11E2F0860026076
:10053E000F7730E038C0E43611F0E93611F404607C
:10054E0002C0E53731F4ECE8F0E0EE83FF8315E00E
:10055E000CC0E83511F4086003C0E83709F09FC0FD
:10056E00E6E9F0E0EE83FF8314E002FF15C00AD146
:10057E00A889B9891496ED91FD91EA87FB87AB8521
:10058E00AA2322F42BD1EA87FB874DE2403011F0EB
:10059E001F5F01C00B7F07C0F5D0A889B9891496DB
:1005AE002AD1EA87FB8700FD10C0151770F407FFEC
:1005BE0008C002FF04C00B7F242F115001C020E39E
:1005CE0001C020E2D8D05150F0CF312F01FF16C01C
:1005DE00303099F003FF06C0EE81FF812591EE8346
:1005EE00FF8305C0AE81BF812D91AE83BF83C3D083
:1005FE00503009F051503150EBCF48C020E3EE811E
:10060E00FF81FDD0E887F987EE81FF813296EE8378
:10061E00FF83E885F985AA85BB85AE17BF0750F025
:10062E002F5FA885B985EA85FB85EA1BFB0BEA8758
:10063E00FB87EFCF2A3328F003FF02C0295F01C0EA
:10064E00295D04FD19C0213320F4A885B9851197C1
:10065E0009F409C0531710F000FF01C011C020E2C9
:10066E0007FF0AC020E3006102FF06C00B7F4A931A
:10067E008FD0503009F051507ED0503009F051508B
:10068E003150A885B985129708F0B8CF00FF07C082
:10069E00503029F05150E0E2EA937AD0F9CF10E0D1
:1006AE00ECCEAC85BD85ED91FD9189D06496089513
:1006BE00FF92F82E26977CD0FE0188D0468557856E
:1006CE00042E052A19F4EFEFFFEF1FC0DE01189676
:1006DE0081D08D0148875987E0E0EA87EB87DE01FC
:1006EE001C9678D0ED91FD91FA93EA931A930A93A2
:1006FE00EEE0F2E0FA93EA93DE011C96B3DE9F0180
:10070E00A885B985E0E0EC93F90159D02C96FF90BD
:10071E000895BA93AA93A991B991EE27FF276D91E7
:10072E00662311F03196FBCF0895BA93AA93AA27A8
:10073E00BB27E991F9910590002011F01196FBCF9E
:10074E00FD01089550DD6E2EE077F0E04BD0AAE06B
:10075E00EA02F001AE2FE62DEF70EA0F0895E72DB5
:10076E00FF27662777274FD00895ED91FD9131969B
:10077E00FE93EE9308952A93AD85BE85EF85F88995
:10078E0009950895E889F9893497E88BF98B0895CE
:10079E00AD85BE85EF85F88909950895A889B98933
:1007AE001496ED91FD91EE83FF83AE81BF81089586
:1007BE005A934A933A932A931A930A9308955D8112
:1007CE004C813B812A811981088108950024EF0D07
:1007DE00F01D08950024AF0DB01D0895F195E1951B
:1007EE00F0400895F595E795F595E795F595E7951C
:1007FE00F595E7950895ED91FC9111970895059063
:10080E00F491E02D08957A936A93FA93EA930895FA
:00000001FF
