:0E0000000C945E000C94E7000C9400000C942D
:10000E0000000C9400000C9400000C9400000C9462
:10001E0000000C9400000C9400000C9400000C9452
:10002E0000000C9400000C9400000C9400000C9442
:10003E0000000C94D9000C9400000C9400000C9459
:10004E0000000C9400000C9400000C9400000C9422
:10005E0000000C9400000C9400000C9400000C9412
:10006E0000000C9400000C9400000C9400000C9402
:10007E0000000C9400000C9400000C94000010275B
:10008E00E80364000A0001000010000110000100E6
:10009E004779756E6744616C00253033640080C00B
:1000AE00090000059E0002001905AC000000F8943E
:1000BE00EE27ECBBF1E0F5BFE5BFE0936C008DE001
:1000CE00A2E0BB27ED938A95E9F780E090E1A0E0EE
:1000DE00B1E0ED930197E9F7EEEAF0E085919591A5
:1000EE00009761F0A591B59105901590BF01F001B3
:1000FE0005900D920197E1F7FB01F0CF8BBFEFEF6B
:10010E00EDBFE0E1EEBFC0E0D5E00C948E00E2E082
:10011E00E1BB9198E1E0E9BFE2E0E0936A00E1E043
:10012E00E7BFE0E0E3BFA0E1E5D09DD0E0E0EA93D9
:10013E00A0E08BD0A0E0B5E0BCD0E0E0EFBFEFEFE9
:10014E00E6BFE0E0E0BF44245524EBE8E2BF919A1D
:10015E00A1E0B0E0EBD2919866247724E1E0F0E0E4
:10016E00E415F50529F0ECE2F1E06E167F060CF0D1
:10017E0001C0F4CF78D0E6E0EA93A1E066D0E9E0E2
:10018E00F5E0FA93EA93E7EAF0E0FA93EA93F301E3
:10019E00BBD2C7D284E031D22896A9E0B5E089D08F
:1001AE00CCCFFFCFEA93FA93EFB7EA93EBE8E2BF37
:1001BE00F30131963F01E991EFBFF991E99118955D
:1001CE00EA93FA93E0E0E3BFE1E0F0E02F01F9916A
:1001DE00E9911895FFE0FA95F1F70895AAB3AF707B
:1001EE00AABBD99AD898F6DFDA9AF4DFA9B3DA98CF
:1001FE00F1DFDA9AEFDFDA98A7FDF5CF0895A07F49
:10020E00AB2BABBBDA9AE6DFDA98E4DF0895AA935C
:10021E00D998AAB3A76FAABBBBB3BF70A881EFDFF3
:10022E00A881A295ECDFD99A0C94B101DA9AD2DFAB
:10023E00E9B3DA98CFDFE07F0895CCDFF7DFAE2F9A
:10024E00F5DFD998E295EA2B0895AA93C7DFE881E6
:10025E00F0E0E75EFA4FE081A981AE0FD8DF99801A
:10026E00888022960895BADFA2E0D1DFB7DFACE036
:10027E00CEDFB4DFA1E0CBDFE0E08E2E9E2E089520
:10028E00AA93EF93FF93A8816894AA3019F0E8948B
:10029E009B1430F08394E0E0EA93A82DD6DF2EF085
:1002AE0093949CDFD89AA881B2DFFF91EF910C94C2
:1002BE00B101BA93AA931A93A981BA81ED91A98338
:1002CE00BA831E2FE03019F0A12FDADFF5CF188197
:1002DE0023960895AA27BB271197F1F70895AA939D
:1002EE00D998AAB3A76FAABBBBB3BF70A88187DF8B
:1002FE00D99A30C0AA93DA98D898B880E881E05895
:10030E00E0931B05E881E054E0931C05E3DFA0E3D6
:10031E00E6DFE0DFA0E3E3DFDDDFA0E3E0DFDADF4F
:10032E00A0E2DDDFD7DFA8E272DFD4DFA4E06FDF6B
:10033E00D1DFA5E86CDFCEDFAAB3AF70AABBD99A26
:10034E007CDFE53011F0E0E005C048DFA6E05FDFBE
:10035E008ADFE1E021960895BDD19D015E8112965E
:10036E00D8D13097E1F0D9011496D3D18F013097BF
:10037E0059F00230E0E01E0760F0F80131978F016E
:10038E00D9011496ED93FC93D901129680D1319731
:10039E005083D901BED1FF230AF079D105C0D9010E
:1003AE00EFEFFFEFED93FC939CD127960895BA9350
:1003BE00AA9326978FD110E0AC85BD85E0E0F0E0E2
:1003CE00ED93FC93EA89FB893196EA8BFB8B31978F
:1003DE00E4912E2FE03009F409C1E12FE03031F421
:1003EE00253211F411E001C058D1FFC0E130A1F463
:1003FE00253211F452D1F8C012E040E000E02D3267
:10040E0011F401E0F2C02B3211F44BE2EEC02032B7
:10041E0011F440E2EAC002C0E23039F450E013E0D9
:10042E00203311F40068E1C003C0E33009F0DDC0F1
:10043E00203310F02A3308F007C0AAE05A9F502D3F
:10044E00E22FE0535E0FD1C0E22FE33639F42CD108
:10045E00E889F989A481AA932DD1C6C0E33729F47E
:10046E0023D12ED1FBD01E2F07C0E03749F41CD16B
:10047E0027D100D11E2F086002600F7730E038C000
:10048E00E43611F0E93611F4046002C0E53731F4B8
:10049E00ECE8F0E0EE83FF8315E00CC0E83511F4D4
:1004AE00086003C0E83709F09FC0E6E9F0E0EE838C
:1004BE00FF8314E002FF15C0F7D0A889B9891496FE
:1004CE00ED91FD91EA87FB87AB85AA2322F418D123
:1004DE00EA87FB874DE2403011F01F5F01C00B7FB2
:1004EE0007C0E2D0A889B989149613D1EA87FB8791
:1004FE0000FD10C0151770F407FF08C002FF04C0FE
:10050E000B7F242F115001C020E301C020E2C5D083
:10051E005150F0CF312F01FF16C0303099F003FF4C
:10052E0006C0EE81FF812591EE83FF8305C0AE816B
:10053E00BF812D91AE83BF83B0D0503009F05150A2
:10054E003150EBCF48C020E3EE81FF81E6D0E88743
:10055E00F987EE81FF813296EE83FF83E885F98578
:10056E00AA85BB85AE17BF0750F02F5FA885B9854A
:10057E00EA85FB85EA1BFB0BEA87FB87EFCF2A3365
:10058E0028F003FF02C0295F01C0295D04FD19C0D8
:10059E00213320F4A885B985119709F409C05317A2
:1005AE0010F000FF01C011C020E207FF0AC020E3D7
:1005BE00006102FF06C00B7F4A937CD0503009F0D9
:1005CE0051506BD0503009F051503150A885B9853B
:1005DE00129708F0B8CF00FF07C0503029F05150E5
:1005EE00E0E2EA9367D0F9CF10E0ECCEAC85BD85A2
:1005FE00ED91FD9176D064960895FF92F82E269790
:10060E0069D0FE0175D046855785042E052A19F44A
:10061E00EFEFFFEF1FC0DE0118966ED08D014887F9
:10062E005987E0E0EA87EB87DE011C9665D0ED91F5
:10063E00FD91FA93EA931A930A93E3EBF1E0FA939E
:10064E00EA93DE011C96B3DE9F01A885B985E0E032
:10065E00EC93F90146D02C96FF900895BA93AA9385
:10066E00A991B991EE27FF276D91662311F031966E
:10067E00FBCF0895BA93AA93AA27BB27E991F991C4
:10068E000590002011F01196FBCFFD010895ED911C
:10069E00FD913196FE93EE9308952A93AD85BE8516
:1006AE00EF85F88909950895E889F9893497E88BDB
:1006BE00F98B0895AD85BE85EF85F8890995089566
:1006CE00A889B9891496ED91FD91EE83FF83AE81D1
:1006DE00BF8108955A934A933A932A931A930A9391
:1006EE0008955D814C813B812A811981088108958D
:1006FE000024EF0DF01D08950024AF0DB01D0895D8
:10070E00F195E195F04008956F2F660F660B762FE9
:10071E000895ED91FC91119708950590F491E02DB7
:10072E0008957A936A93FA93EA930895109639F09E
:10073E00A89580EA9FE00197F1F71197C9F7089500
:00000001FF
