:040000000C94540008
:100004000C9400000C9400000C9400000C9400006C
:100014000C9400000C9400000C9400000C9400005C
:100024000C9400000C9400000C9400000C9400004C
:100034000C9400000C9400000C9400000C9400003C
:100044000C9400000C9400000C9400000C9400002C
:100054000C9400000C9400000C9400000C9400001C
:100064000C9400000C9400000C9400000C9400000C
:100074000C9400000C9400000C9400000C940000FC
:100084000C9400000C9400001027E80364000A009C
:100094000100001000011000010080C002000005F2
:1000A4009E000000F894EE27ECBBF1E0F5BFE5BF3D
:1000B400E0936C008DE0A2E0BB27ED938A95E9F70D
:1000C40080E090E1A0E0B1E0ED930197E9F7E0EA88
:1000D400F0E085919591009761F0A591B591059017
:1000E4001590BF01F00105900D920197E1F7FB0116
:1000F400F0CF8BBFEFEFEDBFE0E1EEBFC0E0D5E0A6
:100104000C94A0007ED0EABDF901C0D0EBBD83D031
:10011400E8BDF801BBD0E9BD0EC073D0E093860002
:10012400F901B4D0E093870076D0E0938400F8011D
:10013400ADD0E093850099D026960895E0EFE09342
:100144006100EFEFE7BBE2B9EABBE3EAEFBDE5E04C
:10015400EEBDE3EAE0938B00E5E0E0938A00E0E89B
:10016400EFBFE7E8E6B95DD0D8DF5BD0CBDFE0E0F6
:10017400E7B9369A349BFECF5BD02F01E1E0E7B9B3
:10018400369A349BFECF54D03F01F201D20190D075
:10019400FBBDEABDE0E0F0E0F9BDE8BDE0E8F0E079
:1001A400E615F7055CF4EBB5E0938500EAB5E0935A
:1001B4008400E9B5E0938700E8B50AC0E9B5E093A7
:1001C4008500E8B5E0938400EBB5E0938700EAB5D9
:1001D400E0938600CCCFFFCFFFE0FA95F1F70895C6
:1001E400AAB3AF70AABBD99AD898F6DFDA9AF4DF2B
:1001F400A9B3DA98F1DFDA9AEFDFDA98A7FDF5CF41
:1002040008952ED08D012C813D81F22FE0E0FF0F67
:10021400EE0BFF0B0895F02FE0E0FF0FEE0BFF0B4A
:100224000895E0E0F0E0FA93EA93A0E0B0E00895E6
:10023400E4B1F0E0DF01E5B1FE2FE0E0EA0FFB1FDF
:100244002AD0AFD0DF01CB01E0E0F0E060E874E455
:1002540023D1A0E0B0E08EE793E4D0D06BD0089532
:100264003A932A931A930A9308953B812A81198118
:1002740008810895F195E195F0400895F095609511
:100284007095E195FF4F6F4F7F4F0895EF2FFF2734
:10029400E7FDFFEF08956F2F660F660B762F089525
:1002A400FA9FF02DEB9FF00DEA9FE02DF10D0895DC
:1002B40004D0F6DF0EF4DEDF0895E894F7FF02C001
:1002C400D9DF6894B7FF06C0B195A195B04000F896
:1002D400039400FA0895552342F4503811F4E0FFD2
:1002E40004C03196691F791F6BF050E8572711F449
:1002F4005F9373C05F3F31F0660F000C57956795AD
:10030400752F08955F9300200AF072C06BC050E807
:10031400192E1522880F991F9527550F879550E898
:10032400072E0522660F771F7527550F67950895C9
:10033400689401C0E8945F93F2DF703818F07F3F4F
:1003440008F44BC056E1571BAAF4519558300EF4EB
:10035400593030F0EFEFFFEF6FEF7FE777F91AC016
:1003640077275523B9F0EE0FFF1F661F771F5A95A5
:10037400D1F710C07727583028F0EF2FF62F672FCA
:100384005850F9CF552331F076956795F795E79551
:100394005A95D1F700200AF471DF5F9108956894AB
:1003A40001C0E894309760407040B1F0002426F01A
:1003B400772312F4009462DF172E7EE1112032F0CD
:1003C4007A95EE0FFF1F661F111CF9CFEF2FF62F42
:1003D400612D5F938ADF5F910895EE27FF27BF01A8
:1003E4005F910895EFEFFFEF6FE77FEF5F9108955F
:1003F400EFEFFFEF6FE77FE75F9108955F9387DF8C
:10040400703859F3903849F301240894791F23F480
:1004140024F300203AF3ECCF0F921F932F933F93D2
:100424004F93112722279927689FA0018F9F302D72
:10043400410D591F6B9F300D411D591F8E9F27D0B1
:10044400BF9F25D06A9F23D0BE9F1DD0AF9F1BD0D6
:10045400AE9F110D291F391F491F591FE32FF42F78
:10046400652F522F4F913F912F911F910F9066232B
:100474002AF0550FEE1FFF1F661F02C073954BF243
:100484002ADF5F910895100D211D391F02C0200D30
:10049400311D491F591F08955F9339DF703821F4C6
:1004A40011200AF49FCFA4CF903809F496CF0124E9
:1004B4000894970B1BF4D4F30020F3CF792F1F93E8
:1004C4002F933F934F931124112722273327A901F8
:1004D40090E2AE17BF078607410730F0AE1BBF0B93
:1004E400860B410B089401C08894551F221F331FAB
:1004F400111CAA1FBB1F881F441F9A9551F7F901AD
:10050400612D4F913F912F911F91662332F0550F2A
:10051400EE1FFF1F661F7A954BF2DDDE5F91089593
:00000001FF
