:100000000C944C000C9400000C9400000C94000024
:100010000C9400000C9400000C9400000C94000060
:100020000C9400000C9400000C9400000C94000050
:100030000C9400000C9400000C9400000C94000040
:100040000C9400000C9400000C9400000C94000030
:100050000C9400000C9400000C9400000C94000020
:100060000C9400000C9400000C9400000C94000010
:100070000C9400000C9400000C9400000C94000000
:100080000C9400000C9400000C9400003F065B4FA1
:10009000666D7D077F670000F894EE27ECBBF1E00A
:1000A000F5BFE5BFE0936C008DE0A2E0BB27ED93C8
:1000B0008A95E9F780E090E1A0E0B1E0ED93019747
:1000C000E9F7E6E9F0E085919591009761F0A59157
:1000D000B59105901590BF01F00105900D92019723
:1000E000E1F7FB01F0CF8BBFEFEFEDBFE0E1EEBF3B
:1000F000C0E0D5E00C947C00EFEFEABBEBBBFFCF98
:00000001FF
