:080000000C9446000C94000072
:100008000C9400000C9400000C9400000C94000068
:100018000C9400000C9400000C9400000C94000058
:100028000C9400000C9400000C9400000C94000048
:100038000C9400000C9400000C9400000C94000038
:100048000C9400000C9400000C9400000C94000028
:100058000C9400000C9400000C9400000C94000018
:100068000C9400000C9400000C9400000C94000008
:100078000C9400000C9400000C9400000C940000F8
:100088000C940000F894EE27ECBBF1E0F5BFE5BF57
:10009800E0936C008DE0A2E0BB27ED938A95E9F729
:1000A80080E090E1A0E0B1E0ED930197E9F78BBF24
:1000B800EFEFEDBFE0E1EEBFC0E0D5E00C946400E7
:1000C800EFEFEABBE7E8E6B9E0E0E7B9E7ECE6B965
:1000D800369A349BFECFE4B1F0E0DF01E5B1FE2FA4
:1000E800E0E0EA0FFB1F2F01D201E7E6F0E01FD0A6
:1000F8002F01D201EAE0F0E01FD0EBBBE7CFFFCF42
:10010800F195E195F04008950024112490E1AA0F9B
:10011800BB1F001C111C0E1A1F0A18F40E0E1F1EFE
:1001280001C0A1609A9599F7FD01D001089512D0F8
:10013800EBDF0EF4E5DF0895E894B7FF04C0B1954E
:10014800A195B0406894F7FDDBDFDEDFFD010EF41A
:10015800D7DF0895E894F7FF02C0D2DF6894B7FFAD
:1001680006C0B195A195B04000F8039400FA08952F
:00000001FF
