:040000000C94460016
:100004000C9400000C9400000C9400000C9400006C
:100014000C9400000C9400000C9400000C9400005C
:100024000C9400000C9400000C9400000C9400004C
:100034000C9400000C9400000C9400000C9400003C
:100044000C9400000C9400000C9400000C9400002C
:100054000C9400000C9400000C9400000C9400001C
:100064000C9400000C9400000C9400000C9400000C
:100074000C9400000C9400000C9400000C940000FC
:100084000C9400000C940000F894EE27ECBBF1E013
:10009400F5BFE5BFE0936C008DE0A2E0BB27ED93D4
:1000A4008A95E9F780E090E1A0E0B1E0ED93019753
:1000B400E9F78BBFEFEFEDBFE0E1EEBFC0E0D5E0C5
:1000C4000C946400EFEFEABB5524E52D5394E3361A
:1000D40008F05524A52DB0E0EAE0F0E026D0E29542
:1000E400E07F6E2FA52DBB27EAE0F0E023D0E62BBE
:1000F400EBBBACE2B1E03AD0E8CFFFCFF195E195AC
:10010400F04008950024112490E1AA0FBB1F001CA5
:10011400111C0E1A1F0A18F40E0E1F1E01C0A16036
:100124009A9599F7FD01D001089512D0EBDF0EF4F2
:10013400E5DF0895E894B7FF04C0B195A195B040F8
:100144006894F7FDDBDFDEDFFD010EF4D7DF0895F1
:10015400E894F7FF02C0D2DF6894B7FF06C0B195F8
:10016400A195B04000F8039400FA0895109639F070
:10017400A89580EA9FE00197F1F71197C9F70895D0
:00000001FF
