:060000000C9446000C9474
:1000060064000C9400000C9400000C9400000C9406
:1000160000000C9400000C9400000C9400000C945A
:1000260000000C9400000C9400000C9400000C944A
:1000360000000C9400000C9400000C9400000C943A
:1000460000000C9400000C9400000C9400000C942A
:1000560000000C9400000C9400000C9400000C941A
:1000660000000C9400000C9400000C9400000C940A
:1000760000000C9400000C9400000C9400000C94FA
:1000860000000C940000F894EE27ECBBF1E0F5BFFD
:10009600E5BFE0936C008DE0A2E0BB27ED938A9567
:1000A600E9F780E090E1A0E0B1E0ED930197E9F790
:1000B6008BBFEFEFEDBFE0E1EEBFC0E0D5E00C9403
:1000C6008D000A921A926A939A93AA93BA93EA9324
:1000D600FA93EFB7EA93E52D5394E33608F05524E7
:1000E600A52DB0E0EAE0F0E03AD0E295E07F6E2F91
:1000F600A52DBB27EAE0F0E037D0E62BEBBBE99174
:10010600EFBFF991E991B991A991999169911990E6
:1001160009901895EFEFEABBE0E0E1BBE1E0E9BF4B
:10012600E2E0E0936A00E0E8EFBF5524FFCFFFCF9F
:10013600F195E195F04008950024112490E1AA0F6D
:10014600BB1F001C111C0E1A1F0A18F40E0E1F1ED0
:1001560001C0A1609A9599F7FD01D001089512D0CA
:10016600EBDF0EF4E5DF0895E894B7FF04C0B19520
:10017600A195B0406894F7FDDBDFDEDFFD010EF4EC
:10018600D7DF0895E894F7FF02C0D2DF6894B7FF7F
:1001960006C0B195A195B04000F8039400FA089501
:00000001FF
