:080000000C9467000C94A501AB
:100008000C9400000C9400000C9400000C94000068
:100018000C9400000C9400000C9400000C94000058
:100028000C9400000C9400000C9400000C94000048
:100038000C9400000C9400000C9497010C940000A0
:100048000C9400000C9400000C9400000C94000028
:100058000C9400000C9400000C9400000C94000018
:100068000C9400000C9400000C9400000C94000008
:100078000C9400000C9400000C9400000C940000F8
:100088000C9400001027E80364000A000100001027
:100098000001100001004449532C205350452C20E6
:1000A800414E47002533642C202533642C2025330A
:1000B80064202564000080C00E0000059E00020038
:1000C8002105BE000000F894EE27ECBBF1E0F5BF77
:1000D800E5BFE0936C008DE0A2E0BB27ED938A9525
:1000E800E9F780E090E1A0E0B1E0ED930197E9F74E
:1000F800E0ECF0E085919591009761F0A591B591BC
:1001080005901590BF01F00105900D920197E1F758
:10011800FB01F0CF8BBFEFEFEDBFE0E1EEBFC0E03A
:10012800D5E00C949700E0E0E4BBEFEFE7BBE2B961
:10013800EABBE3EAEFBDE5E0EEBDE3EAE0938B005E
:10014800E5E0E0938A00E0E8EFBFE7E8E6B9E2E03F
:10015800E1BB919866247724E1E0E9BFE2E0E0930F
:100168006A00E1E0E7BFE0E0E3BFA0E119D3C2D253
:10017800E0E0E7B9369A349BFECF5ED36F01E1E049
:10018800E7B9369A349BFECF57D3E0930E05F09328
:100198000F05E7E8E6B9EFEFE6BFE0E0E0BFEBE820
:1001A800E2BF919AA1E0B0E051D5919888249924B2
:1001B800E2E0E3BFAA24BB24E1E0F0E0EA15FB0596
:1001C80029F0ECE2F1E08E169F06B4F3F3013196C4
:1001D8003F013197E838A3E1FA071CF478D0662488
:1001E8007724A0E09899A1E0E1E0EA23E0932005D4
:1001F800BAD3E0932005EEE1F0E0E815F9050CF03C
:100208005EC032D3A338E0E0BE072CF42DD3A83764
:10021800E0E0BE070CF419C0E0912005E03019F0C9
:1002280028D32FD311C040D324D3F9BDE8BDEBB5F3
:10023800E0938700EAB5E0938600E9B5E09385008E
:10024800E0918400E093840039C00ED3A338E0E045
:10025800BE07DCF0EFEFFFEF2CD331F050928700B0
:10026800409286002BD30AC05092850040928400A9
:10027800E9B5E0938700E8B5E0938600E0E0F0E0B8
:10028800FBBDEABDF9BDE8BD19C0F3D212D389F0B0
:100298005BBC4ABCE0E018D3E0E0F0E0F9BDE8BDA3
:1002A800E0918700E0938500E0918600E093840068
:1002B80005C059BC48BCF8D201D306D306C0E0E05B
:1002C800F0E0DFD2A8EEB3E0C1D452CFFFCF12D214
:1002D800E0E0EA93A0E0FCD1A0E0B5E040D2E0E0A5
:1002E800EA93A1E0F5D1E0E1F5E0FA93EA93ECEACC
:1002F800F0E0FA93EA93F40131D37ED3F6012ED3DA
:100308007BD3E0910E05F0910F0528D375D3E3B3A5
:10031800FF276627772770D380E16ED16496A0E126
:10032800B5E01DD20895EA93FA93EFB7EA93EBE8A4
:10033800E2BFF40131964F01E991EFBFF991E991DC
:100348001895EA93FA93E0E0E3BFE1E0F0E05F019B
:10035800F991E9911895E0D29D015E81129644D3F6
:100368003097E1F0D90114963FD38F01309759F0B7
:100378000230E0E01E0760F0F80131978F01D901E3
:100388001496ED93FC93D9011296A3D2319750831A
:10039800D9012AD3FF230AF09CD205C0D901EFEF77
:1003A800FFEFED93FC93BFD227960895BA93AA93D3
:1003B8002697B2D210E0AC85BD85E0E0F0E0ED9381
:1003C800FC93EA89FB893196EA8BFB8B3197E491A0
:1003D8002E2FE03009F409C1E12FE03031F4253245
:1003E80011F411E001C07BD2FFC0E130A1F4253245
:1003F80011F475D2F8C012E040E000E02D3211F49B
:1004080001E0F2C02B3211F44BE2EEC0203211F4BD
:1004180040E2EAC002C0E23039F450E013E0203391
:1004280011F40068E1C003C0E33009F0DDC02033F7
:1004380010F02A3308F007C0AAE05A9F502DE22F87
:10044800E0535E0FD1C0E22FE33639F44FD2E8898A
:10045800F989A481AA9350D2C6C0E33729F446D2B9
:1004680051D2D1D11E2F07C0E03749F43FD24AD22A
:10047800D6D11E2F086002600F7730E038C0E4360E
:1004880011F0E93611F4046002C0E53731F4ECE804
:10049800F0E0EE83FF8315E00CC0E83511F4086046
:1004A80003C0E83709F09FC0E6E9F0E0EE83FF8378
:1004B80014E002FF15C01AD2A889B9891496ED91E3
:1004C800FD91EA87FB87AB85AA2322F43BD2EA8712
:1004D800FB874DE2403011F01F5F01C00B7F07C062
:1004E80005D2A889B98914967FD2EA87FB8700FDCF
:1004F80010C0151770F407FF08C002FF04C00B7F77
:10050800242F115001C020E301C020E2E8D151504E
:10051800F0CF312F01FF16C0303099F003FF06C02D
:10052800EE81FF812591EE83FF8305C0AE81BF81F7
:100538002D91AE83BF83D3D1503009F05150315043
:10054800EBCF48C020E3EE81FF8152D2E887F987DC
:10055800EE81FF813296EE83FF83E885F985AA85CF
:10056800BB85AE17BF0750F02F5FA885B985EA8510
:10057800FB85EA1BFB0BEA87FB87EFCF2A3328F0C2
:1005880003FF02C0295F01C0295D04FD19C02133A2
:1005980020F4A885B985119709F409C0531710F0FC
:1005A80000FF01C011C020E207FF0AC020E300617C
:1005B80002FF06C00B7F4A939FD1503009F051507B
:1005C8008ED1503009F051503150A885B985129715
:1005D80008F0B8CF00FF07C0503029F05150E0E2D2
:1005E800EA938AD1F9CF10E0ECCEAC85BD85ED91C8
:1005F800FD9199D164960895FF92F82E26978CD193
:10060800FE0198D146855785042E052A19F4EFEF87
:10061800FFEF1FC0DE01189691D18D0148875987D9
:10062800E0E0EA87EB87DE011C9688D1ED91FD9129
:10063800FA93EA931A930A93EFEAF1E0FA93EA93AA
:10064800DE011C96B3DE9F01A885B985E0E0EC9336
:10065800F90169D12C96FF900895FFE0FA95F1F71A
:100668000895AAB3AF70AABBD99AD898F6DFDA9AD8
:10067800F4DFA9B3DA98F1DFDA9AEFDFDA98A7FDA9
:10068800F5CF0895A07FAB2BABBBDA9AE6DFDA98FB
:10069800E4DF0895AA93D998AAB3A76FAABBBBB3FE
:1006A800BF70A881EFDFA881A295ECDFD99A0C94DE
:1006B8000504DA9AD2DFE9B3DA98CFDFE07F08954C
:1006C800CCDFF7DFAE2FF5DFD998E295EA2B089556
:1006D800AA93C7DFE881F0E0EF5DFA4FE081A981D6
:1006E800AE0FD8DFE981E0932505E881E093260580
:1006F80022960895B6DFA2E0CDDFB3DFACE0CADF13
:10070800B0DFA1E0C7DFE0E0E0932605E093250530
:100718000895AA93EF93FF93A8816894AA3039F0BB
:10072800E894E0912705A0912505AE1758F0E091CF
:100738002605EF5FE0932605E0E0EA93A091260501
:10074800C7DF4EF0E0912505EF5FE093250589DFCF
:10075800D89AA8819FDFFF91EF910C940504BA9372
:10076800AA931A93A981BA81ED91A983BA831E2FFE
:10077800E03019F0A12FCDDFF5CF18812396089529
:10078800AA27BB271197F1F70895AA93D998AAB376
:10079800A76FAABBBBB3BF70A88174DFD99A31C059
:1007A800AA93DA98D898E881E0932705E058E0936F
:1007B8002305E881E054E0932405E2DFA0E3E5DFC8
:1007C800DFDFA0E3E2DFDCDFA0E3DFDFD9DFA0E2E9
:1007D800DCDFD6DFA8E25EDFD3DFA4E05BDFD0DFBB
:1007E800A5E858DFCDDFAAB3AF70AABBD99A68DFF6
:1007F800E53011F0E0E005C034DFA6E04BDF7ADF3A
:10080800E1E021960895BA93AA93A991B991EE27A8
:10081800FF276D91662311F03196FBCF0895BA93A7
:10082800AA93AA27BB27E991F9910590002011F016
:100838001196FBCFFD010895E4B1F0E0DF01E5B1C9
:10084800FE2FE0E0EA0FFB1F89D041D1DF01CB0189
:10085800E0E0F0E060E874E4B5D1A0E0B0E08EE755
:1008680093E462D1FDD00895A0910E05B0910F05D3
:100878000895D601EFEFF0E09BD0BF01DB0180D0F7
:100888000895FBBDEABDE0E0F0E0F9BDE8BDE9B5DB
:10089800E0938500E8B5E0938400EBB5E09387002A
:1008A800EAB5E09386000895E0E0F0E0FBBDEABD1C
:1008B80008952F01E0912005E0300895E0E0E093ED
:1008C8008400E09385000895E0938600E093870014
:1008D8000895ED91FD913196FE93EE9308952A9334
:1008E800AD85BE85EF85F88909950895E889F98968
:1008F8003497E88BF98B0895AD85BE85EF85F88927
:1009080009950895A889B9891496ED91FD91EE830A
:10091800FF83AE81BF8108955A934A933A932A93ED
:100928001A930A9308955D814C813B812A8119812C
:10093800088108950024EF0DF01D08950024AF0DDF
:10094800B01D0895F195E195F0400895F0956095F2
:100958007095E195FF4F6F4F7F4F08956F2F660F8A
:10096800660B762F0895EE23E1E009F0EE2708954F
:10097800FA9FF02DEB9FF00DEA9FE02DF10D089501
:1009880025D0F6DF0EF4DEDF08950024112490E16F
:10099800AA0FBB1F001C111C0E1A1F0A18F40E0EFA
:1009A8001F1E01C0A1609A9599F7FD01D001089515
:1009B800E894B7FF04C0B195A195B0406894F7FDDD
:1009C800C1DFE3DFFD010EF4BDDF0895E894F7FF12
:1009D80002C0B8DF6894B7FF06C0B195A195B040D2
:1009E80000F8039400FA0895ED91FC911197089589
:1009F8000590F491E02D08957A936A93FA93EA9317
:100A08000895552342F4503811F4E0FF04C031969C
:100A1800691F791F6BF050E8572711F45F9373C073
:100A28005F3F31F0660F000C57956795752F089555
:100A38005F9300200AF072C06BC050E8192E15228F
:100A4800880F991F9527550F879550E8072E05227F
:100A5800660F771F7527550F67950895689401C02D
:100A6800E8945F93F2DF703818F07F3F08F44BC0CA
:100A780056E1571BAAF4519558300EF4593030F00E
:100A8800EFEFFFEF6FEF7FE777F91AC0772755236E
:100A9800B9F0EE0FFF1F661F771F5A95D1F710C0E8
:100AA8007727583028F0EF2FF62F672F5850F9CFB7
:100AB800552331F076956795F795E7955A95D1F7CF
:100AC80000200AF443DF5F910895689401C0E89418
:100AD800309760407040B1F0002426F0772312F47C
:100AE800009434DF172E7EE1112032F07A95EE0F54
:100AF800FF1F661F111CF9CFEF2FF62F612D5F9393
:100B08008ADF5F910895EE27FF27BF015F9108955F
:100B1800EFEFFFEF6FE77FEF5F910895EFEFFFEFE4
:100B28006FE77FE75F9108955F9387DF703859F328
:100B3800903849F301240894791F23F424F3002002
:100B48003AF3ECCF0F921F932F933F934F931127B4
:100B580022279927689FA0018F9F302D410D591F8B
:100B68006B9F300D411D591F8E9F27D0BF9F25D0E9
:100B78006A9F23D0BE9F1DD0AF9F1BD0AE9F110D83
:100B8800291F391F491F591FE32FF42F652F522F93
:100B98004F913F912F911F910F9066232AF0550F87
:100BA800EE1FFF1F661F02C073954BF22ADF5F918D
:100BB8000895100D211D391F02C0200D311D491F38
:100BC800591F08955F9339DF703821F411200AF412
:100BD8009FCFA4CF903809F496CF01240894970B9F
:100BE8001BF4D4F30020F3CF792F1F932F933F9357
:100BF8004F931124112722273327A90190E2AE171A
:100C0800BF078607410730F0AE1BBF0B860B410BB1
:100C1800089401C08894551F221F331F111CAA1F56
:100C2800BB1F881F441F9A9551F7F901612D4F91F9
:100C38003F912F911F91662332F0550FEE1FFF1F32
:100C4800661F7A954BF2DDDE5F910895109639F0B4
:100C5800A89580EA9FE00197F1F71197C9F70895E1
:00000001FF
